{
  "abi": [
    {
      "type": "constructor",
      "inputs": [
        {
          "name": "_randomNumberGenerator",
          "type": "address",
          "internalType": "address"
        }
      ],
      "stateMutability": "nonpayable"
    },
    {
      "type": "function",
      "name": "MINIMAL_TIME_INTERVAL",
      "inputs": [],
      "outputs": [
        {
          "name": "",
          "type": "uint256",
          "internalType": "uint256"
        }
      ],
      "stateMutability": "view"
    },
    {
      "type": "function",
      "name": "TIME_BEFORE_START",
      "inputs": [],
      "outputs": [
        {
          "name": "",
          "type": "uint256",
          "internalType": "uint256"
        }
      ],
      "stateMutability": "view"
    },
    {
      "type": "function",
      "name": "approve",
      "inputs": [
        {
          "name": "to",
          "type": "address",
          "internalType": "address"
        },
        {
          "name": "tokenId",
          "type": "uint256",
          "internalType": "uint256"
        }
      ],
      "outputs": [],
      "stateMutability": "nonpayable"
    },
    {
      "type": "function",
      "name": "balanceOf",
      "inputs": [
        {
          "name": "owner",
          "type": "address",
          "internalType": "address"
        }
      ],
      "outputs": [
        {
          "name": "",
          "type": "uint256",
          "internalType": "uint256"
        }
      ],
      "stateMutability": "view"
    },
    {
      "type": "function",
      "name": "createRaffle",
      "inputs": [
        {
          "name": "name",
          "type": "string",
          "internalType": "string"
        },
        {
          "name": "symbol",
          "type": "string",
          "internalType": "string"
        },
        {
          "name": "owner",
          "type": "address",
          "internalType": "address"
        },
        {
          "name": "timeInterval",
          "type": "uint256",
          "internalType": "uint256"
        },
        {
          "name": "description",
          "type": "string",
          "internalType": "string"
        },
        {
          "name": "imageURI",
          "type": "string",
          "internalType": "string"
        },
        {
          "name": "linkedNft",
          "type": "address",
          "internalType": "address"
        }
      ],
      "outputs": [],
      "stateMutability": "payable"
    },
    {
      "type": "function",
      "name": "distributeRewards",
      "inputs": [
        {
          "name": "index",
          "type": "uint256",
          "internalType": "uint256"
        }
      ],
      "outputs": [
        {
          "name": "winner",
          "type": "address",
          "internalType": "address"
        }
      ],
      "stateMutability": "nonpayable"
    },
    {
      "type": "function",
      "name": "getApproved",
      "inputs": [
        {
          "name": "tokenId",
          "type": "uint256",
          "internalType": "uint256"
        }
      ],
      "outputs": [
        {
          "name": "",
          "type": "address",
          "internalType": "address"
        }
      ],
      "stateMutability": "view"
    },
    {
      "type": "function",
      "name": "getLinkedNftBasedOnTokenId",
      "inputs": [
        {
          "name": "tokenId",
          "type": "uint256",
          "internalType": "uint256"
        }
      ],
      "outputs": [
        {
          "name": "",
          "type": "address",
          "internalType": "address"
        }
      ],
      "stateMutability": "view"
    },
    {
      "type": "function",
      "name": "getMinimalRewardAmount",
      "inputs": [],
      "outputs": [
        {
          "name": "",
          "type": "uint256",
          "internalType": "uint256"
        }
      ],
      "stateMutability": "view"
    },
    {
      "type": "function",
      "name": "getTokenId",
      "inputs": [],
      "outputs": [
        {
          "name": "",
          "type": "uint256",
          "internalType": "uint256"
        }
      ],
      "stateMutability": "view"
    },
    {
      "type": "function",
      "name": "isApprovedForAll",
      "inputs": [
        {
          "name": "owner",
          "type": "address",
          "internalType": "address"
        },
        {
          "name": "operator",
          "type": "address",
          "internalType": "address"
        }
      ],
      "outputs": [
        {
          "name": "",
          "type": "bool",
          "internalType": "bool"
        }
      ],
      "stateMutability": "view"
    },
    {
      "type": "function",
      "name": "name",
      "inputs": [],
      "outputs": [
        {
          "name": "",
          "type": "string",
          "internalType": "string"
        }
      ],
      "stateMutability": "view"
    },
    {
      "type": "function",
      "name": "owner",
      "inputs": [],
      "outputs": [
        {
          "name": "",
          "type": "address",
          "internalType": "address"
        }
      ],
      "stateMutability": "view"
    },
    {
      "type": "function",
      "name": "ownerOf",
      "inputs": [
        {
          "name": "tokenId",
          "type": "uint256",
          "internalType": "uint256"
        }
      ],
      "outputs": [
        {
          "name": "",
          "type": "address",
          "internalType": "address"
        }
      ],
      "stateMutability": "view"
    },
    {
      "type": "function",
      "name": "renounceOwnership",
      "inputs": [],
      "outputs": [],
      "stateMutability": "nonpayable"
    },
    {
      "type": "function",
      "name": "s_creatorsToRaffles",
      "inputs": [
        {
          "name": "raffleOwner",
          "type": "address",
          "internalType": "address"
        },
        {
          "name": "",
          "type": "uint256",
          "internalType": "uint256"
        }
      ],
      "outputs": [
        {
          "name": "timeInterval",
          "type": "uint256",
          "internalType": "uint256"
        },
        {
          "name": "startTime",
          "type": "uint256",
          "internalType": "uint256"
        },
        {
          "name": "description",
          "type": "string",
          "internalType": "string"
        },
        {
          "name": "imageURI",
          "type": "string",
          "internalType": "string"
        },
        {
          "name": "rewardAmount",
          "type": "uint256",
          "internalType": "uint256"
        },
        {
          "name": "tokenURI",
          "type": "string",
          "internalType": "string"
        },
        {
          "name": "active",
          "type": "uint8",
          "internalType": "enum Raffle.RaffleStatus"
        },
        {
          "name": "linkedNft",
          "type": "address",
          "internalType": "address"
        }
      ],
      "stateMutability": "view"
    },
    {
      "type": "function",
      "name": "s_minimalRewardAmount",
      "inputs": [],
      "outputs": [
        {
          "name": "",
          "type": "uint256",
          "internalType": "uint256"
        }
      ],
      "stateMutability": "view"
    },
    {
      "type": "function",
      "name": "s_randomNumberGenerator",
      "inputs": [],
      "outputs": [
        {
          "name": "",
          "type": "address",
          "internalType": "contract RandomNumberGenerator"
        }
      ],
      "stateMutability": "view"
    },
    {
      "type": "function",
      "name": "s_tokenId",
      "inputs": [],
      "outputs": [
        {
          "name": "",
          "type": "uint256",
          "internalType": "uint256"
        }
      ],
      "stateMutability": "view"
    },
    {
      "type": "function",
      "name": "safeTransferFrom",
      "inputs": [
        {
          "name": "from",
          "type": "address",
          "internalType": "address"
        },
        {
          "name": "to",
          "type": "address",
          "internalType": "address"
        },
        {
          "name": "tokenId",
          "type": "uint256",
          "internalType": "uint256"
        }
      ],
      "outputs": [],
      "stateMutability": "nonpayable"
    },
    {
      "type": "function",
      "name": "safeTransferFrom",
      "inputs": [
        {
          "name": "from",
          "type": "address",
          "internalType": "address"
        },
        {
          "name": "to",
          "type": "address",
          "internalType": "address"
        },
        {
          "name": "tokenId",
          "type": "uint256",
          "internalType": "uint256"
        },
        {
          "name": "data",
          "type": "bytes",
          "internalType": "bytes"
        }
      ],
      "outputs": [],
      "stateMutability": "nonpayable"
    },
    {
      "type": "function",
      "name": "setApprovalForAll",
      "inputs": [
        {
          "name": "operator",
          "type": "address",
          "internalType": "address"
        },
        {
          "name": "approved",
          "type": "bool",
          "internalType": "bool"
        }
      ],
      "outputs": [],
      "stateMutability": "nonpayable"
    },
    {
      "type": "function",
      "name": "setMinimalRewardAmount",
      "inputs": [
        {
          "name": "minimalRewardAmount",
          "type": "uint256",
          "internalType": "uint256"
        }
      ],
      "outputs": [],
      "stateMutability": "nonpayable"
    },
    {
      "type": "function",
      "name": "supportsInterface",
      "inputs": [
        {
          "name": "interfaceId",
          "type": "bytes4",
          "internalType": "bytes4"
        }
      ],
      "outputs": [
        {
          "name": "",
          "type": "bool",
          "internalType": "bool"
        }
      ],
      "stateMutability": "view"
    },
    {
      "type": "function",
      "name": "symbol",
      "inputs": [],
      "outputs": [
        {
          "name": "",
          "type": "string",
          "internalType": "string"
        }
      ],
      "stateMutability": "view"
    },
    {
      "type": "function",
      "name": "tokenURI",
      "inputs": [
        {
          "name": "tokenId",
          "type": "uint256",
          "internalType": "uint256"
        }
      ],
      "outputs": [
        {
          "name": "",
          "type": "string",
          "internalType": "string"
        }
      ],
      "stateMutability": "view"
    },
    {
      "type": "function",
      "name": "transferFrom",
      "inputs": [
        {
          "name": "from",
          "type": "address",
          "internalType": "address"
        },
        {
          "name": "to",
          "type": "address",
          "internalType": "address"
        },
        {
          "name": "tokenId",
          "type": "uint256",
          "internalType": "uint256"
        }
      ],
      "outputs": [],
      "stateMutability": "nonpayable"
    },
    {
      "type": "function",
      "name": "transferOwnership",
      "inputs": [
        {
          "name": "newOwner",
          "type": "address",
          "internalType": "address"
        }
      ],
      "outputs": [],
      "stateMutability": "nonpayable"
    },
    {
      "type": "function",
      "name": "updateRaffleStatus",
      "inputs": [
        {
          "name": "index",
          "type": "uint256",
          "internalType": "uint256"
        },
        {
          "name": "active",
          "type": "bool",
          "internalType": "bool"
        }
      ],
      "outputs": [],
      "stateMutability": "nonpayable"
    },
    {
      "type": "event",
      "name": "Approval",
      "inputs": [
        {
          "name": "owner",
          "type": "address",
          "indexed": true,
          "internalType": "address"
        },
        {
          "name": "approved",
          "type": "address",
          "indexed": true,
          "internalType": "address"
        },
        {
          "name": "tokenId",
          "type": "uint256",
          "indexed": true,
          "internalType": "uint256"
        }
      ],
      "anonymous": false
    },
    {
      "type": "event",
      "name": "ApprovalForAll",
      "inputs": [
        {
          "name": "owner",
          "type": "address",
          "indexed": true,
          "internalType": "address"
        },
        {
          "name": "operator",
          "type": "address",
          "indexed": true,
          "internalType": "address"
        },
        {
          "name": "approved",
          "type": "bool",
          "indexed": false,
          "internalType": "bool"
        }
      ],
      "anonymous": false
    },
    {
      "type": "event",
      "name": "BatchMetadataUpdate",
      "inputs": [
        {
          "name": "_fromTokenId",
          "type": "uint256",
          "indexed": false,
          "internalType": "uint256"
        },
        {
          "name": "_toTokenId",
          "type": "uint256",
          "indexed": false,
          "internalType": "uint256"
        }
      ],
      "anonymous": false
    },
    {
      "type": "event",
      "name": "MetadataUpdate",
      "inputs": [
        {
          "name": "_tokenId",
          "type": "uint256",
          "indexed": false,
          "internalType": "uint256"
        }
      ],
      "anonymous": false
    },
    {
      "type": "event",
      "name": "OwnershipTransferred",
      "inputs": [
        {
          "name": "previousOwner",
          "type": "address",
          "indexed": true,
          "internalType": "address"
        },
        {
          "name": "newOwner",
          "type": "address",
          "indexed": true,
          "internalType": "address"
        }
      ],
      "anonymous": false
    },
    {
      "type": "event",
      "name": "RaffleCreated",
      "inputs": [
        {
          "name": "to",
          "type": "address",
          "indexed": false,
          "internalType": "address"
        },
        {
          "name": "timeInterval",
          "type": "uint256",
          "indexed": false,
          "internalType": "uint256"
        },
        {
          "name": "startTime",
          "type": "uint256",
          "indexed": false,
          "internalType": "uint256"
        },
        {
          "name": "description",
          "type": "string",
          "indexed": false,
          "internalType": "string"
        },
        {
          "name": "imageURI",
          "type": "string",
          "indexed": false,
          "internalType": "string"
        },
        {
          "name": "rewardAmount",
          "type": "uint256",
          "indexed": false,
          "internalType": "uint256"
        },
        {
          "name": "tokenURI",
          "type": "string",
          "indexed": false,
          "internalType": "string"
        },
        {
          "name": "linkedNft",
          "type": "address",
          "indexed": false,
          "internalType": "address"
        }
      ],
      "anonymous": false
    },
    {
      "type": "event",
      "name": "Transfer",
      "inputs": [
        {
          "name": "from",
          "type": "address",
          "indexed": true,
          "internalType": "address"
        },
        {
          "name": "to",
          "type": "address",
          "indexed": true,
          "internalType": "address"
        },
        {
          "name": "tokenId",
          "type": "uint256",
          "indexed": true,
          "internalType": "uint256"
        }
      ],
      "anonymous": false
    },
    {
      "type": "error",
      "name": "ERC721IncorrectOwner",
      "inputs": [
        {
          "name": "sender",
          "type": "address",
          "internalType": "address"
        },
        {
          "name": "tokenId",
          "type": "uint256",
          "internalType": "uint256"
        },
        {
          "name": "owner",
          "type": "address",
          "internalType": "address"
        }
      ]
    },
    {
      "type": "error",
      "name": "ERC721InsufficientApproval",
      "inputs": [
        {
          "name": "operator",
          "type": "address",
          "internalType": "address"
        },
        {
          "name": "tokenId",
          "type": "uint256",
          "internalType": "uint256"
        }
      ]
    },
    {
      "type": "error",
      "name": "ERC721InvalidApprover",
      "inputs": [
        {
          "name": "approver",
          "type": "address",
          "internalType": "address"
        }
      ]
    },
    {
      "type": "error",
      "name": "ERC721InvalidOperator",
      "inputs": [
        {
          "name": "operator",
          "type": "address",
          "internalType": "address"
        }
      ]
    },
    {
      "type": "error",
      "name": "ERC721InvalidOwner",
      "inputs": [
        {
          "name": "owner",
          "type": "address",
          "internalType": "address"
        }
      ]
    },
    {
      "type": "error",
      "name": "ERC721InvalidReceiver",
      "inputs": [
        {
          "name": "receiver",
          "type": "address",
          "internalType": "address"
        }
      ]
    },
    {
      "type": "error",
      "name": "ERC721InvalidSender",
      "inputs": [
        {
          "name": "sender",
          "type": "address",
          "internalType": "address"
        }
      ]
    },
    {
      "type": "error",
      "name": "ERC721NonexistentToken",
      "inputs": [
        {
          "name": "tokenId",
          "type": "uint256",
          "internalType": "uint256"
        }
      ]
    },
    {
      "type": "error",
      "name": "OwnableInvalidOwner",
      "inputs": [
        {
          "name": "owner",
          "type": "address",
          "internalType": "address"
        }
      ]
    },
    {
      "type": "error",
      "name": "OwnableUnauthorizedAccount",
      "inputs": [
        {
          "name": "account",
          "type": "address",
          "internalType": "address"
        }
      ]
    },
    {
      "type": "error",
      "name": "Raffle__AlreadyCompleted",
      "inputs": []
    },
    {
      "type": "error",
      "name": "Raffle__NotActive",
      "inputs": []
    },
    {
      "type": "error",
      "name": "Raffle__NotEnoughTimePassed",
      "inputs": []
    },
    {
      "type": "error",
      "name": "Raffle__TransferFailed",
      "inputs": []
    },
    {
      "type": "error",
      "name": "Raffle__rewardAmountTooLow",
      "inputs": []
    },
    {
      "type": "error",
      "name": "Raffle__rewardParticipantsGreaterThanNftCount",
      "inputs": []
    },
    {
      "type": "error",
      "name": "Raffle__timeIntervalTooShort",
      "inputs": []
    },
    {
      "type": "error",
      "name": "StringsInsufficientHexLength",
      "inputs": [
        {
          "name": "value",
          "type": "uint256",
          "internalType": "uint256"
        },
        {
          "name": "length",
          "type": "uint256",
          "internalType": "uint256"
        }
      ]
    }
  ],
  "bytecode": {
    "object": "0x6080604052346103bf576127b46020813803918261001c816103c4565b9384928339810103126103bf57516001600160a01b038116908190036103bf5761004660406103c4565b906009825268149859999b1953999d60ba1b602083015261006760406103c4565b6002815261292760f11b602082015282519091906001600160401b0381116102ca57600054600181811c911680156103b5575b60208210146102aa57601f8111610351575b506020601f82116001146102eb57819293946000926102e0575b50508160011b916000199060031b1c1916176000555b81516001600160401b0381116102ca57600154600181811c911680156102c0575b60208210146102aa57601f8111610245575b50602092601f82116001146101e057928192936000926101d5575b50508160011b916000199060031b1c1916176001555b33156101bf5760078054336001600160a01b0319821681179092556040519291906001600160a01b03167f8be0079c531659141344cd1fd0a4f28419497f9722a3daafe3b4186f6b6457e0600080a36000600855662386f26fc10000600955600b80546001600160a01b0319169190911790556123ca90816103ea8239f35b631e4fbdf760e01b600052600060045260246000fd5b01519050388061012a565b601f198216936001600052806000209160005b86811061022d5750836001959610610214575b505050811b01600155610140565b015160001960f88460031b161c19169055388080610206565b919260206001819286850151815501940192016101f3565b60016000527fb10e2d527612073b26eecdfd717e6a320cf44b4afac2b0732d9fcbe2b7fa0cf6601f830160051c810191602084106102a0575b601f0160051c01905b818110610294575061010f565b60008155600101610287565b909150819061027e565b634e487b7160e01b600052602260045260246000fd5b90607f16906100fd565b634e487b7160e01b600052604160045260246000fd5b0151905038806100c6565b601f1982169060008052806000209160005b81811061033957509583600195969710610320575b505050811b016000556100dc565b015160001960f88460031b161c19169055388080610312565b9192602060018192868b0151815501940192016102fd565b600080527f290decd9548b62a8d60345a988386fc84ba6bc95484008f6362f93160ef3e563601f830160051c810191602084106103ab575b601f0160051c01905b81811061039f57506100ac565b60008155600101610392565b9091508190610389565b90607f169061009a565b600080fd5b6040519190601f01601f191682016001600160401b038111838210176102ca5760405256fe608080604052600436101561001357600080fd5b60003560e01c908163010a38f514611b635750806301ffc9a714611adb57806306fdde0314611a36578063081812fc146119f8578063095ea7b314611909578063171314f1146118eb5780631e7c636b146118ca57806323b872dd146118b357806329a615261461189557806335a34171146117a057806342842e0e1461177057806352f87d4c14610d6757806359974e3814610b145780636352211e14610ae457806370a0823114610a8e578063715018a614610a315780638da5cb5b14610a085780639316754a1461078057806395d89b411461093b578063a22cb4651461089a578063b4d0993c14610843578063b88d4fde146107d5578063c87b56dd1461079e578063c9f8756014610780578063d05477a81461028d578063e1ab70d114610271578063e23affaf14610248578063e985e9c5146101ed5763f2fde38b1461015e57600080fd5b346101e85760203660031901126101e857610177611bc6565b61017f61200e565b6001600160a01b031680156101d257600780546001600160a01b0319811683179091556001600160a01b03167f8be0079c531659141344cd1fd0a4f28419497f9722a3daafe3b4186f6b6457e0600080a3005b631e4fbdf760e01b600052600060045260246000fd5b600080fd5b346101e85760403660031901126101e857610206611bc6565b61020e611bdc565b9060018060a01b0316600052600560205260406000209060018060a01b0316600052602052602060ff604060002054166040519015158152f35b346101e85760003660031901126101e857600b546040516001600160a01b039091168152602090f35b346101e85760003660031901126101e857602060405160018152f35b346101e85760403660031901126101e8576004356102a9611dcf565b33600052600a60205260016102c2836040600020611c2c565b500154421061076f5733600052600a60205260ff60066102e6846040600020611c2c565b500154166003811015610759576002146107485715156001036106e05733600052600a602052600661031c826040600020611c2c565b500160ff1981541690556008546020906040516103398382611c98565b6000815233156106ca5760008281526002845260408120546001600160a01b031680151591849083610696575b338082526003885260408083208054600101905583835260028952822080546001600160a01b031916821790559083907fddf252ad1be2c89b69c2b068fc378daa952ba7f163c4a11628f55a4df523b3ef9080a450610680578290333b61058e575b5050506103f060056103e96008549433600052600a85526040600020611c2c565b5001611cba565b9180600052600682526040600020835167ffffffffffffffff8111610578576104198254611c5e565b601f8111610532575b508394601f82116001146104ac577ff8e1a15aba9398e019f0b49df1a4fde98ee17ae345cb5f6b5e2c27f5033e8ce795600091836104a1575b50508160011b916000199060031b1c19161790555b604051908152a1600854600019811461048b57600101600855005b634e487b7160e01b600052601160045260246000fd5b01519050868061045b565b601f1982169583600052856000209160005b88811061051b5750908392916001947ff8e1a15aba9398e019f0b49df1a4fde98ee17ae345cb5f6b5e2c27f5033e8ce79910610502575b505050811b019055610470565b015160001960f88460031b161c191690558680806104f5565b9192876001819286850151815501940192016104be565b8260005284600020601f830160051c81019186841061056e575b601f0160051c01905b8181106105625750610422565b60008155600101610555565b909150819061054c565b634e487b7160e01b600052604160045260246000fd5b6105c7926040519384928392630a85bd0160e11b8452336004850152600060248501526044840152608060648401526084830190611ba1565b03816000335af1809160009161063b575b509061060757506105e7611f74565b8051918261060457633250574960e11b6000523360045260246000fd5b01fd5b6001600160e01b03191663757a42ff60e11b01610626578281816103c8565b633250574960e11b6000523360045260246000fd5b8381813d8311610679575b6106508183611c98565b810103126106755751906001600160e01b0319821682036106725750846105d8565b80fd5b5080fd5b503d610646565b6339e3563760e11b600052600060045260246000fd5b600082815260046020526040902080546001600160a01b031916905582815260038752604081208054600019019055610366565b633250574960e11b600052600060045260246000fd5b600080808093338252600a602052600661071760046107028460408720611c2c565b50015492338552600a60205260408520611c2c565b5001805460ff19166002179055335af161072f611f74565b501561073757005b63a1d04b3960e01b60005260046000fd5b632875928760e11b60005260046000fd5b634e487b7160e01b600052602160045260246000fd5b634e1e5a3360e01b60005260046000fd5b346101e85760003660031901126101e8576020600954604051908152f35b346101e85760203660031901126101e8576107d16107bd600435611fa4565b604051918291602083526020830190611ba1565b0390f35b346101e85760803660031901126101e8576107ee611bc6565b6107f6611bdc565b906044356064359267ffffffffffffffff84116101e857366023850112156101e85761082f610841943690602481600401359101611d7a565b9261083b838383611dde565b33612183565b005b346101e85760203660031901126101e857602061087f6004356001600160a01b0361086d82611fd7565b16600052600a83526040600020611c2c565b506006015460405160089190911c6001600160a01b03168152f35b346101e85760403660031901126101e8576108b3611bc6565b6108bb611dcf565b6001600160a01b039091169081156109265733600052600560205260406000208260005260205260406000209015159060ff1981541660ff83161790556040519081527f17307eab39ab6107e8899845ad3d59bd9653f200f220920489ca2b5937696c3160203392a3005b50630b61174360e31b60005260045260246000fd5b346101e85760003660031901126101e857604051600060015461095d81611c5e565b80845290600181169081156109e45750600114610985575b6107d1836107bd81850382611c98565b600160009081527fb10e2d527612073b26eecdfd717e6a320cf44b4afac2b0732d9fcbe2b7fa0cf6939250905b8082106109ca575090915081016020016107bd610975565b9192600181602092548385880101520191019092916109b2565b60ff191660208086019190915291151560051b840190910191506107bd9050610975565b346101e85760003660031901126101e8576007546040516001600160a01b039091168152602090f35b346101e85760003660031901126101e857610a4a61200e565b600780546001600160a01b031981169091556000906001600160a01b03167f8be0079c531659141344cd1fd0a4f28419497f9722a3daafe3b4186f6b6457e08280a3005b346101e85760203660031901126101e8576001600160a01b03610aaf611bc6565b168015610ace5760005260036020526020604060002054604051908152f35b6322718ad960e21b600052600060045260246000fd5b346101e85760203660031901126101e8576020610b02600435611fd7565b6040516001600160a01b039091168152f35b346101e85760203660031901126101e85760043533600052600a6020526001610b41826040600020611c2c565b50015433600052600a602052610b5b826040600020611c2c565b5054810180911161048b57421061076f5733600052600a60205260ff6006610b87836040600020611c2c565b50015416600381101561075957610d5657610baf9033600052600a6020526040600020611c2c565b5060068101805460ff191660021790819055600491820154600b5460405163ce10b1fb60e01b8152919360089390931c6001600160a01b039081169360209284928391165afa908115610cd057600091610d24575b5060405163456d033760e11b8152602081600481865afa908115610cd057600091610cf2575b508015610cdc57602460209260405194859384926331a9108f60e11b84520660048301525afa908115610cd057600091610c8d575b5090600080808093855af1610c72611f74565b5015610737576040516001600160a01b039091168152602090f35b6020813d602011610cc8575b81610ca660209383611c98565b810103126106755751906001600160a01b038216820361067257506000610c5f565b3d9150610c99565b6040513d6000823e3d90fd5b634e487b7160e01b600052601260045260246000fd5b906020823d602011610d1c575b81610d0c60209383611c98565b8101031261067257505184610c2a565b3d9150610cff565b90506020813d602011610d4e575b81610d3f60209383611c98565b810103126101e8575183610c04565b3d9150610d32565b63ca20d30960e01b60005260046000fd5b60e03660031901126101e85760043567ffffffffffffffff81116101e857610d93903690600401611db1565b60243567ffffffffffffffff81116101e857610db3903690600401611db1565b906044356001600160a01b038116908190036101e8576064359160843567ffffffffffffffff81116101e857610ded903690600401611db1565b60a43567ffffffffffffffff81116101e857610e0d903690600401611db1565b9060c4359260018060a01b0384168094036101e85762015180861061175f57600954341061174e57610e3e85612037565b6000878072184f03e93ff9f4daa797ed6e38ed64bf6a1f0160401b81101561172b575b806d04ee2d6d415b85acef8100000000600a921015611710575b662386f26fc100008110156116fc575b6305f5e1008110156116eb575b6127108110156116dc575b60648110156116ce575b10156116c3575b600a6021610ec460018501612151565b938401015b60001901916f181899199a1a9b1b9c1cb0b131b232b360811b8282061a8353048015610ef857600a9091610ec9565b5050610f0386612037565b91604051998a9460208601607b60f81b905268113730b6b2911d101160b91b602187015280519081602a88019160200191610f3d92611b7e565b8501602a8101600160fd1b905281519182602b83019160200191610f6092611b7e565b01602a0161088b60f21b60018201526f113232b9b1b934b83a34b7b7111d101160811b600382015285519060138101826020890191610f9e92611b7e565b0160010161088b60f21b6012820152691134b6b0b3b2911d101160b11b6014820152865190601e81018260208a0191610fd692611b7e565b0160120161088b60f21b600c8201526e2261747472696275746573223a205b60881b600e820152601d81017f7b2274726169745f74797065223a20224f776e6572222c202276616c7565223a905261101160f11b603d82015281519182603f8301916020019161104592611b7e565b01600c0162089f4b60ea1b6033820152603681017f7b2274726169745f74797065223a202254696d6520496e74657276616c222c20905269113b30b63ab2911d101160b11b6056820152815191826060830191602001916110a592611b7e565b0160330162089f4b60ea1b602d820152603081017f7b2274726169745f74797065223a20224c696e6b6564204e4654222c20227661905266363ab2911d101160c91b60508201528151918260578301916020019161110292611b7e565b61227d60f01b91016057810191909152605d60f81b6059820152607d60f81b605a82015203603b8101875261113a90605b0187611c98565b60609560405161114a8882611c98565b60408082527f4142434445464748494a4b4c4d4e4f505152535455565758595a61626364656660208301527f6768696a6b6c6d6e6f707172737475767778797a303132333435363738392b2f908201526111a391612298565b906040518092602082017f646174613a6170706c69636174696f6e2f6a736f6e3b6261736536342c000000905280519081603d840191602001916111e692611b7e565b810103603d01601f19810183526111fd9083611c98565b84600052600a602052604060002092426001019384421161048b5760405192610100840184811067ffffffffffffffff821117610578576040528884526020840193868552604081018281528b8201858152608083019034825260a084019289845260c085019860018a5260e08601978d89528054680100000000000000008110156105785761129291600182018155611c2c565b9690966116ad57518655516001860155518051600286019167ffffffffffffffff82116105785781906112c58454611c5e565b601f811161165a575b50602090601f83116001146115f5576000926115ea575b50508160011b916000199060031b1c19161790555b518051600385019167ffffffffffffffff821161057857819061131d8454611c5e565b601f8111611597575b50602090601f831160011461153257600092611527575b50508160011b916000199060031b1c19161790555b516004830155518051600583019167ffffffffffffffff8211610578576113798354611c5e565b601f81116114df575b50602090601f83116001146114745760069493929160009183611469575b50508160011b916000199060031b1c19161790555b0193516003811015610759577f644475f58e742fd2aed6326c04531f6fd70ddf9c2d80bf8fe4cc14a0dd23c1909a61145e9761144a9661143c956101009460ff801984541691161782555181549085600160a81b039060081b169085600160a81b0319161790556040519b8c9b8c5260208c015260408b0152890152610100880190611ba1565b908682036080880152611ba1565b903460a086015284820360c0860152611ba1565b9060e08301520390a1005b015190508f806113a0565b90601f1983169184600052816000209260005b8181106114c75750916001939185600698979694106114ae575b505050811b0190556113b5565b015160001960f88460031b161c191690558f80806114a1565b92936020600181928786015181550195019301611487565b836000526020600020601f840160051c8101916020851061151d575b601f0160051c01905b8181106115115750611382565b60008155600101611504565b90915081906114fb565b01519050388061133d565b60008581528281209350601f198516905b81811061157f5750908460019594939210611566575b505050811b019055611352565b015160001960f88460031b161c19169055388080611559565b92936020600181928786015181550195019301611543565b909150836000526020600020601f840160051c810191602085106115e0575b90601f859493920160051c01905b8181106115d15750611326565b600081558493506001016115c4565b90915081906115b6565b0151905038806112e5565b60008581528281209350601f198516905b8181106116425750908460019594939210611629575b505050811b0190556112fa565b015160001960f88460031b161c1916905538808061161c565b92936020600181928786015181550195019301611606565b909150836000526020600020601f840160051c810191602085106116a3575b90601f859493920160051c01905b81811061169457506112ce565b60008155849350600101611687565b9091508190611679565b634e487b7160e01b600052600060045260246000fd5b600190910190610eb4565b606460029104930192610ead565b61271060049104930192610ea3565b6305f5e10060089104930192610e98565b662386f26fc1000060109104930192610e8b565b6d04ee2d6d415b85acef810000000060209104930192610e7b565b506040915072184f03e93ff9f4daa797ed6e38ed64bf6a1f0160401b8904610e61565b633cd7a8f760e21b60005260046000fd5b6338c8e1cb60e11b60005260046000fd5b346101e85761084161178136611bf2565b9060405192611791602085611c98565b6000845261083b838383611dde565b346101e85760403660031901126101e8576117b9611bc6565b6001600160a01b03166000908152600a602052604090208054602435908110156101e8576117e691611c2c565b5080549060018101549061186f6117ff60028301611cba565b9161180c60038201611cba565b9061185c60048201549261184e600661182760058601611cba565b9401549660ff8816986040519a8b5260208b015261010060408b01526101008a0190611ba1565b9088820360608a0152611ba1565b91608087015285820360a0870152611ba1565b90600383101561075957839260c084015260018060a01b039060081c1660e08301520390f35b346101e85760003660031901126101e8576020604051620151808152f35b346101e8576108416118c436611bf2565b91611dde565b346101e85760203660031901126101e8576118e361200e565b600435600955005b346101e85760003660031901126101e8576020600854604051908152f35b346101e85760403660031901126101e857611922611bc6565b60243561192e81611fd7565b331515806119e5575b806119b7575b6119a25781906001600160a01b0384811691167f8c5be1e5ebec7d5bd14f71427d1e84f3dd0314c0f7b2291e5b200ac8c7c3b925600080a4600090815260046020526040902080546001600160a01b0319166001600160a01b03909216919091179055005b63a9fbf51f60e01b6000523360045260246000fd5b506001600160a01b038116600090815260056020908152604080832033845290915290205460ff161561193d565b506001600160a01b038116331415611937565b346101e85760203660031901126101e857600435611a1581611fd7565b506000526004602052602060018060a01b0360406000205416604051908152f35b346101e85760003660031901126101e85760405160008054611a5781611c5e565b80845290600181169081156109e45750600114611a7e576107d1836107bd81850382611c98565b60008080527f290decd9548b62a8d60345a988386fc84ba6bc95484008f6362f93160ef3e563939250905b808210611ac1575090915081016020016107bd610975565b919260018160209254838588010152019101909291611aa9565b346101e85760203660031901126101e85760043563ffffffff60e01b81168091036101e857602090632483248360e11b8114908115611b20575b506040519015158152f35b6380ac58cd60e01b811491508115611b52575b8115611b41575b5082611b15565b6301ffc9a760e01b14905082611b3a565b635b5e139f60e01b81149150611b33565b346101e85760003660031901126101e8576020906008548152f35b60005b838110611b915750506000910152565b8181015183820152602001611b81565b90602091611bba81518092818552858086019101611b7e565b601f01601f1916010190565b600435906001600160a01b03821682036101e857565b602435906001600160a01b03821682036101e857565b60609060031901126101e8576004356001600160a01b03811681036101e857906024356001600160a01b03811681036101e8579060443590565b8054821015611c48576000526007602060002091020190600090565b634e487b7160e01b600052603260045260246000fd5b90600182811c92168015611c8e575b6020831014611c7857565b634e487b7160e01b600052602260045260246000fd5b91607f1691611c6d565b90601f8019910116810190811067ffffffffffffffff82111761057857604052565b9060405191826000825492611cce84611c5e565b8084529360018116908115611d3c5750600114611cf5575b50611cf392500383611c98565b565b90506000929192526020600020906000915b818310611d20575050906020611cf39282010138611ce6565b6020919350806001915483858901015201910190918492611d07565b905060209250611cf394915060ff191682840152151560051b82010138611ce6565b67ffffffffffffffff811161057857601f01601f191660200190565b929192611d8682611d5e565b91611d946040519384611c98565b8294818452818301116101e8578281602093846000960137010152565b9080601f830112156101e857816020611dcc93359101611d7a565b90565b6024359081151582036101e857565b6001600160a01b03909116919082156106ca576000828152600260205260408120546001600160a01b0316938391859033151580611edc575b507fddf252ad1be2c89b69c2b068fc378daa952ba7f163c4a11628f55a4df523b3ef9082611ea7575b83815260036020526040812060018154019055848152600260205260408120846bffffffffffffffffffffffff60a01b82541617905580a46001600160a01b0316808303611e8d57505050565b6364283d7b60e01b60005260045260245260445260646000fd5b600085815260046020526040902080546001600160a01b03191690558281526003602052604081208054600019019055611e40565b915091925080611f25575b15611ef6579084849238611e17565b839085611f0f57602491637e27328960e01b8252600452fd5b60449163177e802f60e01b825233600452602452fd5b503385148015611f53575b80611ee75750838152600460205260408120546001600160a01b03163314611ee7565b5084815260056020908152604080832033845290915281205460ff16611f30565b3d15611f9f573d90611f8582611d5e565b91611f936040519384611c98565b82523d6000602084013e565b606090565b611fad81611fd7565b506000526006602052611fc36040600020611cba565b6000604051611fd3602082611c98565b5290565b6000818152600260205260409020546001600160a01b0316908115611ffa575090565b637e27328960e01b60005260045260246000fd5b6007546001600160a01b0316330361202257565b63118cdaa760e01b6000523360045260246000fd5b80600091612045602a611d5e565b926120536040519485611c98565b602a8452612061602a611d5e565b6020850190601f190136823784511561213d576030905383516001101561212957607860218501535060009160295b600181116120ba57506120a257505090565b63e22e27eb60e01b8252600452601460245260449150fd5b90600f81166010811015612115578551831015612115576f181899199a1a9b1b9c1cb0b131b232b360811b901a8583016020015360041c9080156121015760001901612090565b634e487b7160e01b84526011600452602484fd5b634e487b7160e01b85526032600452602485fd5b634e487b7160e01b81526032600452602490fd5b634e487b7160e01b82526032600452602482fd5b9061215b82611d5e565b6121686040519182611c98565b8281528092612179601f1991611d5e565b0190602036910137565b823b612191575b5050505050565b604051630a85bd0160e11b81526001600160a01b0391821660048201529181166024830152604482019390935260806064820152911691602090829081906121dd906084830190611ba1565b03816000865af18091600091612255575b509061221f57506121fd611f74565b8051908161221a5782633250574960e11b60005260045260246000fd5b602001fd5b6001600160e01b03191663757a42ff60e11b016122415750388080808061218a565b633250574960e11b60005260045260246000fd5b6020813d602011612290575b8161226e60209383611c98565b810103126106755751906001600160e01b0319821682036106725750386121ee565b3d9150612261565b91909180511561237c5780516002810180911161048b5760039004600281901b906001600160fe1b0381160361048b576122d190612151565b9060208201908081518201956020870190815192600083525b88811061232e575050600393949596505251068060011461231b57600214612310575090565b603d90600019015390565b50603d9081600019820153600119015390565b600360049199969901986001603f8b5182828260121c16870101518453828282600c1c16870101518385015382828260061c16870101516002850153168401015160038201530194976122ea565b50905060405161238d602082611c98565b600081529056fea2646970667358221220d60008bb78fd3421ce5332b24ba8e9fafbc8dfab1a4a035c71d4bdc2cf14a55564736f6c634300081a0033",
    "linkReferences": {}
  },
  "methodIdentifiers": {
    "MINIMAL_TIME_INTERVAL()": "29a61526",
    "TIME_BEFORE_START()": "e1ab70d1",
    "approve(address,uint256)": "095ea7b3",
    "balanceOf(address)": "70a08231",
    "createRaffle(string,string,address,uint256,string,string,address)": "52f87d4c",
    "distributeRewards(uint256)": "59974e38",
    "getApproved(uint256)": "081812fc",
    "getLinkedNftBasedOnTokenId(uint256)": "b4d0993c",
    "getMinimalRewardAmount()": "9316754a",
    "getTokenId()": "010a38f5",
    "isApprovedForAll(address,address)": "e985e9c5",
    "name()": "06fdde03",
    "owner()": "8da5cb5b",
    "ownerOf(uint256)": "6352211e",
    "renounceOwnership()": "715018a6",
    "s_creatorsToRaffles(address,uint256)": "35a34171",
    "s_minimalRewardAmount()": "c9f87560",
    "s_randomNumberGenerator()": "e23affaf",
    "s_tokenId()": "171314f1",
    "safeTransferFrom(address,address,uint256)": "42842e0e",
    "safeTransferFrom(address,address,uint256,bytes)": "b88d4fde",
    "setApprovalForAll(address,bool)": "a22cb465",
    "setMinimalRewardAmount(uint256)": "1e7c636b",
    "supportsInterface(bytes4)": "01ffc9a7",
    "symbol()": "95d89b41",
    "tokenURI(uint256)": "c87b56dd",
    "transferFrom(address,address,uint256)": "23b872dd",
    "transferOwnership(address)": "f2fde38b",
    "updateRaffleStatus(uint256,bool)": "d05477a8"
  },
  "id": 41
}