{
  "abi": [
    {
      "type": "constructor",
      "inputs": [
        {
          "name": "name",
          "type": "string",
          "internalType": "string"
        },
        {
          "name": "symbol",
          "type": "string",
          "internalType": "string"
        }
      ],
      "stateMutability": "nonpayable"
    },
    {
      "type": "function",
      "name": "approve",
      "inputs": [
        {
          "name": "to",
          "type": "address",
          "internalType": "address"
        },
        {
          "name": "tokenId",
          "type": "uint256",
          "internalType": "uint256"
        }
      ],
      "outputs": [],
      "stateMutability": "nonpayable"
    },
    {
      "type": "function",
      "name": "balanceOf",
      "inputs": [
        {
          "name": "owner",
          "type": "address",
          "internalType": "address"
        }
      ],
      "outputs": [
        {
          "name": "",
          "type": "uint256",
          "internalType": "uint256"
        }
      ],
      "stateMutability": "view"
    },
    {
      "type": "function",
      "name": "getApproved",
      "inputs": [
        {
          "name": "tokenId",
          "type": "uint256",
          "internalType": "uint256"
        }
      ],
      "outputs": [
        {
          "name": "",
          "type": "address",
          "internalType": "address"
        }
      ],
      "stateMutability": "view"
    },
    {
      "type": "function",
      "name": "getCounter",
      "inputs": [],
      "outputs": [
        {
          "name": "",
          "type": "uint256",
          "internalType": "uint256"
        }
      ],
      "stateMutability": "view"
    },
    {
      "type": "function",
      "name": "isApprovedForAll",
      "inputs": [
        {
          "name": "owner",
          "type": "address",
          "internalType": "address"
        },
        {
          "name": "operator",
          "type": "address",
          "internalType": "address"
        }
      ],
      "outputs": [
        {
          "name": "",
          "type": "bool",
          "internalType": "bool"
        }
      ],
      "stateMutability": "view"
    },
    {
      "type": "function",
      "name": "mint",
      "inputs": [
        {
          "name": "to",
          "type": "address",
          "internalType": "address"
        }
      ],
      "outputs": [],
      "stateMutability": "nonpayable"
    },
    {
      "type": "function",
      "name": "name",
      "inputs": [],
      "outputs": [
        {
          "name": "",
          "type": "string",
          "internalType": "string"
        }
      ],
      "stateMutability": "view"
    },
    {
      "type": "function",
      "name": "ownerOf",
      "inputs": [
        {
          "name": "tokenId",
          "type": "uint256",
          "internalType": "uint256"
        }
      ],
      "outputs": [
        {
          "name": "",
          "type": "address",
          "internalType": "address"
        }
      ],
      "stateMutability": "view"
    },
    {
      "type": "function",
      "name": "s_counter",
      "inputs": [],
      "outputs": [
        {
          "name": "",
          "type": "uint256",
          "internalType": "uint256"
        }
      ],
      "stateMutability": "view"
    },
    {
      "type": "function",
      "name": "s_userMintedOrNot",
      "inputs": [
        {
          "name": "user",
          "type": "address",
          "internalType": "address"
        }
      ],
      "outputs": [
        {
          "name": "minted",
          "type": "bool",
          "internalType": "bool"
        }
      ],
      "stateMutability": "view"
    },
    {
      "type": "function",
      "name": "safeTransferFrom",
      "inputs": [
        {
          "name": "from",
          "type": "address",
          "internalType": "address"
        },
        {
          "name": "to",
          "type": "address",
          "internalType": "address"
        },
        {
          "name": "tokenId",
          "type": "uint256",
          "internalType": "uint256"
        }
      ],
      "outputs": [],
      "stateMutability": "nonpayable"
    },
    {
      "type": "function",
      "name": "safeTransferFrom",
      "inputs": [
        {
          "name": "from",
          "type": "address",
          "internalType": "address"
        },
        {
          "name": "to",
          "type": "address",
          "internalType": "address"
        },
        {
          "name": "tokenId",
          "type": "uint256",
          "internalType": "uint256"
        },
        {
          "name": "data",
          "type": "bytes",
          "internalType": "bytes"
        }
      ],
      "outputs": [],
      "stateMutability": "nonpayable"
    },
    {
      "type": "function",
      "name": "setApprovalForAll",
      "inputs": [
        {
          "name": "operator",
          "type": "address",
          "internalType": "address"
        },
        {
          "name": "approved",
          "type": "bool",
          "internalType": "bool"
        }
      ],
      "outputs": [],
      "stateMutability": "nonpayable"
    },
    {
      "type": "function",
      "name": "supportsInterface",
      "inputs": [
        {
          "name": "interfaceId",
          "type": "bytes4",
          "internalType": "bytes4"
        }
      ],
      "outputs": [
        {
          "name": "",
          "type": "bool",
          "internalType": "bool"
        }
      ],
      "stateMutability": "view"
    },
    {
      "type": "function",
      "name": "symbol",
      "inputs": [],
      "outputs": [
        {
          "name": "",
          "type": "string",
          "internalType": "string"
        }
      ],
      "stateMutability": "view"
    },
    {
      "type": "function",
      "name": "tokenURI",
      "inputs": [
        {
          "name": "tokenId",
          "type": "uint256",
          "internalType": "uint256"
        }
      ],
      "outputs": [
        {
          "name": "",
          "type": "string",
          "internalType": "string"
        }
      ],
      "stateMutability": "view"
    },
    {
      "type": "function",
      "name": "transferFrom",
      "inputs": [
        {
          "name": "from",
          "type": "address",
          "internalType": "address"
        },
        {
          "name": "to",
          "type": "address",
          "internalType": "address"
        },
        {
          "name": "tokenId",
          "type": "uint256",
          "internalType": "uint256"
        }
      ],
      "outputs": [],
      "stateMutability": "nonpayable"
    },
    {
      "type": "event",
      "name": "Approval",
      "inputs": [
        {
          "name": "owner",
          "type": "address",
          "indexed": true,
          "internalType": "address"
        },
        {
          "name": "approved",
          "type": "address",
          "indexed": true,
          "internalType": "address"
        },
        {
          "name": "tokenId",
          "type": "uint256",
          "indexed": true,
          "internalType": "uint256"
        }
      ],
      "anonymous": false
    },
    {
      "type": "event",
      "name": "ApprovalForAll",
      "inputs": [
        {
          "name": "owner",
          "type": "address",
          "indexed": true,
          "internalType": "address"
        },
        {
          "name": "operator",
          "type": "address",
          "indexed": true,
          "internalType": "address"
        },
        {
          "name": "approved",
          "type": "bool",
          "indexed": false,
          "internalType": "bool"
        }
      ],
      "anonymous": false
    },
    {
      "type": "event",
      "name": "Transfer",
      "inputs": [
        {
          "name": "from",
          "type": "address",
          "indexed": true,
          "internalType": "address"
        },
        {
          "name": "to",
          "type": "address",
          "indexed": true,
          "internalType": "address"
        },
        {
          "name": "tokenId",
          "type": "uint256",
          "indexed": true,
          "internalType": "uint256"
        }
      ],
      "anonymous": false
    },
    {
      "type": "error",
      "name": "ERC721IncorrectOwner",
      "inputs": [
        {
          "name": "sender",
          "type": "address",
          "internalType": "address"
        },
        {
          "name": "tokenId",
          "type": "uint256",
          "internalType": "uint256"
        },
        {
          "name": "owner",
          "type": "address",
          "internalType": "address"
        }
      ]
    },
    {
      "type": "error",
      "name": "ERC721InsufficientApproval",
      "inputs": [
        {
          "name": "operator",
          "type": "address",
          "internalType": "address"
        },
        {
          "name": "tokenId",
          "type": "uint256",
          "internalType": "uint256"
        }
      ]
    },
    {
      "type": "error",
      "name": "ERC721InvalidApprover",
      "inputs": [
        {
          "name": "approver",
          "type": "address",
          "internalType": "address"
        }
      ]
    },
    {
      "type": "error",
      "name": "ERC721InvalidOperator",
      "inputs": [
        {
          "name": "operator",
          "type": "address",
          "internalType": "address"
        }
      ]
    },
    {
      "type": "error",
      "name": "ERC721InvalidOwner",
      "inputs": [
        {
          "name": "owner",
          "type": "address",
          "internalType": "address"
        }
      ]
    },
    {
      "type": "error",
      "name": "ERC721InvalidReceiver",
      "inputs": [
        {
          "name": "receiver",
          "type": "address",
          "internalType": "address"
        }
      ]
    },
    {
      "type": "error",
      "name": "ERC721InvalidSender",
      "inputs": [
        {
          "name": "sender",
          "type": "address",
          "internalType": "address"
        }
      ]
    },
    {
      "type": "error",
      "name": "ERC721NonexistentToken",
      "inputs": [
        {
          "name": "tokenId",
          "type": "uint256",
          "internalType": "uint256"
        }
      ]
    },
    {
      "type": "error",
      "name": "LinkedNft__AlreadyMinted",
      "inputs": []
    }
  ],
  "bytecode": {
    "object": "0x6080604052346103275761120a803803806100198161032c565b9283398101906040818303126103275780516001600160401b0381116103275782610045918301610351565b60208201519092906001600160401b038111610327576100659201610351565b81516001600160401b03811161023457600054600181811c9116801561031d575b602082101461021457601f81116102b9575b50602092601f8211600114610255579281929360009261024a575b50508160011b916000199060031b1c1916176000555b80516001600160401b03811161023457600154600181811c9116801561022a575b602082101461021457601f81116101af575b50602091601f821160011461014b57918192600092610140575b50508160011b916000199060031b1c1916176001555b6000600655604051610e4d90816103bd8239f35b015190503880610116565b601f198216926001600052806000209160005b8581106101975750836001951061017e575b505050811b0160015561012c565b015160001960f88460031b161c19169055388080610170565b9192602060018192868501518155019401920161015e565b60016000527fb10e2d527612073b26eecdfd717e6a320cf44b4afac2b0732d9fcbe2b7fa0cf6601f830160051c8101916020841061020a575b601f0160051c01905b8181106101fe57506100fc565b600081556001016101f1565b90915081906101e8565b634e487b7160e01b600052602260045260246000fd5b90607f16906100ea565b634e487b7160e01b600052604160045260246000fd5b0151905038806100b3565b601f1982169360008052806000209160005b8681106102a15750836001959610610288575b505050811b016000556100c9565b015160001960f88460031b161c1916905538808061027a565b91926020600181928685015181550194019201610267565b600080527f290decd9548b62a8d60345a988386fc84ba6bc95484008f6362f93160ef3e563601f830160051c81019160208410610313575b601f0160051c01905b8181106103075750610098565b600081556001016102fa565b90915081906102f1565b90607f1690610086565b600080fd5b6040519190601f01601f191682016001600160401b0381118382101761023457604052565b81601f82011215610327578051906001600160401b03821161023457610380601f8301601f191660200161032c565b92828452602083830101116103275760005b8281106103a757505060206000918301015290565b8060208092840101518282870101520161039256fe608080604052600436101561001357600080fd5b600090813560e01c90816301ffc9a71461098a5750806306fdde03146108cf578063081812fc14610892578063095ea7b3146107aa57806323b872dd1461079257806342842e0e146107625780634fe1599d146107235780636352211e146106f257806369e1770c146103e25780636a6278421461045357806370a08231146104005780638ada066e146103e257806395d89b41146102d5578063a22cb46514610233578063b88d4fde14610194578063c87b56dd146101385763e985e9c5146100dc57600080fd5b346101355760403660031901126101355760406100f7610a38565b91610100610a53565b9260018060a01b031681526005602052209060018060a01b0316600052602052602060ff604060002054166040519015158152f35b80fd5b503461013557602036600319011261013557610155600435610ca3565b5080604051610165602082610aa3565b5250610190604051610178602082610aa3565b600081526040519182916020835260208301906109f7565b0390f35b5034610135576080366003190112610135576101ae610a38565b6101b6610a53565b6044356064359167ffffffffffffffff831161022f573660238401121561022f57826004013593856101e786610adb565b946101f56040519687610aa3565b868652366024888301011161022b5786610228976024602093018389013786010152610222838383610af7565b33610cda565b80f35b5080fd5b8480fd5b50346101355760403660031901126101355761024d610a38565b602435908115158092036102d1576001600160a01b03169081156102bd573383526005602052604083208284526020526040832060ff1981541660ff83161790556040519081527f17307eab39ab6107e8899845ad3d59bd9653f200f220920489ca2b5937696c3160203392a380f35b630b61174360e31b83526004829052602483fd5b8280fd5b50346101355780600319360112610135576040519080600154908160011c916001811680156103d8575b6020841081146103c45783865290811561039d5750600114610340575b6101908461032c81860382610aa3565b6040519182916020835260208301906109f7565b600181527fb10e2d527612073b26eecdfd717e6a320cf44b4afac2b0732d9fcbe2b7fa0cf6939250905b8082106103835750909150810160200161032c8261031c565b91926001816020925483858801015201910190929161036a565b60ff191660208087019190915292151560051b8501909201925061032c915083905061031c565b634e487b7160e01b83526022600452602483fd5b92607f16926102ff565b50346101355780600319360112610135576020600654604051908152f35b5034610135576020366003190112610135576001600160a01b03610422610a38565b16801561043f578160409160209352600383522054604051908152f35b6322718ad960e21b82526004829052602482fd5b50346101355760203660031901126101355761046d610a38565b6001600160a01b0381168083526007602052604083205491929160ff166106e357808252600760205260408220600160ff1982541617905560065492602093604051916104ba8684610aa3565b84835283156106cf578185526002865260408520546001600160a01b0316801515908161069b575b8587526003885260408088208054600101905584885260028952872080546001600160a01b031916871790558386827fddf252ad1be2c89b69c2b068fc378daa952ba7f163c4a11628f55a4df523b3ef8a80a450610687573b61056e575b5050509050600654600019811461055a5760010160065580f35b634e487b7160e01b82526011600452602482fd5b6105a89185916040519384928392630a85bd0160e11b845233600485015288602485015260448401526080606484015260848301906109f7565b038186865af1839181610643575b5061060c57503d15610605573d6105cc81610adb565b906105da6040519283610aa3565b81523d838583013e5b805193846105ff57633250574960e11b84526004839052602484fd5b84925001fd5b60606105e3565b919250906001600160e01b03191663757a42ff60e11b01610631575080388080610540565b633250574960e11b8252600452602490fd5b9091508481813d8311610680575b61065b8183610aa3565b8101031261067c57516001600160e01b03198116810361067c5790386105b6565b8380fd5b503d610651565b6339e3563760e11b85526004859052602485fd5b600084815260046020526040902080546001600160a01b0319169055808752600388526040872080546000190190556104e2565b633250574960e11b85526004859052602485fd5b6334c222f160e11b8252600482fd5b5034610135576020366003190112610135576020610711600435610ca3565b6040516001600160a01b039091168152f35b50346101355760203660031901126101355760209060ff906040906001600160a01b0361074e610a38565b168152600784522054166040519015158152f35b50346101355761022861077436610a69565b9060405192610784602085610aa3565b858452610222838383610af7565b5034610135576102286107a436610a69565b91610af7565b5034610135576040366003190112610135576107c4610a38565b6024356107d081610ca3565b3315158061087f575b80610854575b6108415781906001600160a01b0384811691167f8c5be1e5ebec7d5bd14f71427d1e84f3dd0314c0f7b2291e5b200ac8c7c3b9258680a4825260046020526040822080546001600160a01b0319166001600160a01b0390921691909117905580f35b63a9fbf51f60e01b845233600452602484fd5b506001600160a01b038116845260056020908152604080862033875290915284205460ff16156107df565b506001600160a01b0381163314156107d9565b5034610135576020366003190112610135576020906004356108b381610ca3565b50815260048252604060018060a01b0391205416604051908152f35b503461013557806003193601126101355760405190808054908160011c91600181168015610980575b6020841081146103c45783865290811561039d5750600114610924576101908461032c81860382610aa3565b8080527f290decd9548b62a8d60345a988386fc84ba6bc95484008f6362f93160ef3e563939250905b8082106109665750909150810160200161032c8261031c565b91926001816020925483858801015201910190929161094d565b92607f16926108f8565b90503461022b57602036600319011261022b5760043563ffffffff60e01b81168091036102d157602092506380ac58cd60e01b81149081156109e6575b81156109d5575b5015158152f35b6301ffc9a760e01b149050386109ce565b635b5e139f60e01b811491506109c7565b919082519283825260005b848110610a23575050826000602080949584010152601f8019910116010190565b80602080928401015182828601015201610a02565b600435906001600160a01b0382168203610a4e57565b600080fd5b602435906001600160a01b0382168203610a4e57565b6060906003190112610a4e576004356001600160a01b0381168103610a4e57906024356001600160a01b0381168103610a4e579060443590565b90601f8019910116810190811067ffffffffffffffff821117610ac557604052565b634e487b7160e01b600052604160045260246000fd5b67ffffffffffffffff8111610ac557601f01601f191660200190565b6001600160a01b0390911691908215610c8d576000828152600260205260408120546001600160a01b0316938391859033151580610bf5575b507fddf252ad1be2c89b69c2b068fc378daa952ba7f163c4a11628f55a4df523b3ef9082610bc0575b83815260036020526040812060018154019055848152600260205260408120846bffffffffffffffffffffffff60a01b82541617905580a46001600160a01b0316808303610ba657505050565b6364283d7b60e01b60005260045260245260445260646000fd5b600085815260046020526040902080546001600160a01b03191690558281526003602052604081208054600019019055610b59565b915091925080610c3e575b15610c0f579084849238610b30565b839085610c2857602491637e27328960e01b8252600452fd5b60449163177e802f60e01b825233600452602452fd5b503385148015610c6c575b80610c005750838152600460205260408120546001600160a01b03163314610c00565b5084815260056020908152604080832033845290915281205460ff16610c49565b633250574960e11b600052600060045260246000fd5b6000818152600260205260409020546001600160a01b0316908115610cc6575090565b637e27328960e01b60005260045260246000fd5b823b610ce8575b5050505050565b604051630a85bd0160e11b81526001600160a01b039182166004820152918116602483015260448201939093526080606482015291169160209082908190610d349060848301906109f7565b03816000865af18091600091610dd4575b5090610d9e57503d15610d97573d610d5c81610adb565b90610d6a6040519283610aa3565b81523d6000602083013e5b80519081610d925782633250574960e11b60005260045260246000fd5b602001fd5b6060610d75565b6001600160e01b03191663757a42ff60e11b01610dc057503880808080610ce1565b633250574960e11b60005260045260246000fd5b6020813d602011610e0f575b81610ded60209383610aa3565b8101031261022b5751906001600160e01b031982168203610135575038610d45565b3d9150610de056fea2646970667358221220746fa0ffb6cfd4482feb6061a568f3be4f94831460563205749023ed3b286d4064736f6c634300081a0033",
    "linkReferences": {}
  },
  "methodIdentifiers": {
    "approve(address,uint256)": "095ea7b3",
    "balanceOf(address)": "70a08231",
    "getApproved(uint256)": "081812fc",
    "getCounter()": "8ada066e",
    "isApprovedForAll(address,address)": "e985e9c5",
    "mint(address)": "6a627842",
    "name()": "06fdde03",
    "ownerOf(uint256)": "6352211e",
    "s_counter()": "69e1770c",
    "s_userMintedOrNot(address)": "4fe1599d",
    "safeTransferFrom(address,address,uint256)": "42842e0e",
    "safeTransferFrom(address,address,uint256,bytes)": "b88d4fde",
    "setApprovalForAll(address,bool)": "a22cb465",
    "supportsInterface(bytes4)": "01ffc9a7",
    "symbol()": "95d89b41",
    "tokenURI(uint256)": "c87b56dd",
    "transferFrom(address,address,uint256)": "23b872dd"
  },
  "id": 40
}