{
  "abi": [
    {
      "type": "function",
      "name": "interactWithCampaign",
      "inputs": [
        {
          "name": "to",
          "type": "address",
          "internalType": "address"
        },
        {
          "name": "raffle",
          "type": "address",
          "internalType": "address"
        },
        {
          "name": "raffleNftTokenId",
          "type": "uint256",
          "internalType": "uint256"
        }
      ],
      "outputs": [],
      "stateMutability": "nonpayable"
    },
    {
      "type": "event",
      "name": "UserEvent",
      "inputs": [
        {
          "name": "userWalletAddress",
          "type": "address",
          "indexed": true,
          "internalType": "address"
        },
        {
          "name": "raffle",
          "type": "address",
          "indexed": true,
          "internalType": "address"
        },
        {
          "name": "raffleNftTokenId",
          "type": "uint256",
          "indexed": true,
          "internalType": "uint256"
        }
      ],
      "anonymous": false
    }
  ],
  "bytecode": {
    "object": "0x6080806040523460135760c2908160198239f35b600080fdfe60806040526004361015601157600080fd5b60003560e01c6378acb21014602557600080fd5b3460875760603660031901126087576004356001600160a01b038116908190036087576024356001600160a01b03811690819003608757604435917f8734b644c328c9dfb97d8b98ec7967ed95d7f38656c9746330a571be37b3c244600080a4005b600080fdfea26469706673582212202e40277c7b06764415768893844dd347f33ed2e88a9b3376372a13ec2b73b58c64736f6c634300081a0033",
    "linkReferences": {}
  },
  "methodIdentifiers": {
    "interactWithCampaign(address,address,uint256)": "78acb210"
  },
  "id": 43
}